{
  "_format": "hh-sol-artifact-1",
  "contractName": "FlashMintTest",
  "sourceName": "contracts/tests/FlashMintTest.sol",
  "abi": [
    {
      "inputs": [
        {
          "internalType": "address",
          "name": "_satoshi",
          "type": "address"
        }
      ],
      "stateMutability": "nonpayable",
      "type": "constructor"
    },
    {
      "inputs": [],
      "name": "flashBalance",
      "outputs": [
        {
          "internalType": "uint256",
          "name": "",
          "type": "uint256"
        }
      ],
      "stateMutability": "view",
      "type": "function"
    },
    {
      "inputs": [
        {
          "internalType": "uint256",
          "name": "value",
          "type": "uint256"
        }
      ],
      "name": "flashMint",
      "outputs": [],
      "stateMutability": "nonpayable",
      "type": "function"
    },
    {
      "inputs": [
        {
          "internalType": "uint256",
          "name": "value",
          "type": "uint256"
        }
      ],
      "name": "flashMintAndReenter",
      "outputs": [],
      "stateMutability": "nonpayable",
      "type": "function"
    },
    {
      "inputs": [
        {
          "internalType": "uint256",
          "name": "value",
          "type": "uint256"
        }
      ],
      "name": "flashMintAndSteal",
      "outputs": [],
      "stateMutability": "nonpayable",
      "type": "function"
    },
    {
      "inputs": [
        {
          "internalType": "uint256",
          "name": "value",
          "type": "uint256"
        }
      ],
      "name": "flashMintAndWithdraw",
      "outputs": [],
      "stateMutability": "nonpayable",
      "type": "function"
    },
    {
      "inputs": [],
      "name": "flashSender",
      "outputs": [
        {
          "internalType": "address",
          "name": "",
          "type": "address"
        }
      ],
      "stateMutability": "view",
      "type": "function"
    },
    {
      "inputs": [],
      "name": "flashValue",
      "outputs": [
        {
          "internalType": "uint256",
          "name": "",
          "type": "uint256"
        }
      ],
      "stateMutability": "view",
      "type": "function"
    },
    {
      "inputs": [
        {
          "internalType": "address",
          "name": "sender",
          "type": "address"
        },
        {
          "internalType": "uint256",
          "name": "value",
          "type": "uint256"
        },
        {
          "internalType": "bytes",
          "name": "data",
          "type": "bytes"
        }
      ],
      "name": "onSatsFlashLoan",
      "outputs": [
        {
          "internalType": "bytes32",
          "name": "",
          "type": "bytes32"
        }
      ],
      "stateMutability": "nonpayable",
      "type": "function"
    },
    {
      "inputs": [],
      "name": "satoshi",
      "outputs": [
        {
          "internalType": "address",
          "name": "",
          "type": "address"
        }
      ],
      "stateMutability": "view",
      "type": "function"
    },
    {
      "stateMutability": "payable",
      "type": "receive"
    }
  ],
  "bytecode": "0x608060405234801561001057600080fd5b50604051610a97380380610a978339818101604052602081101561003357600080fd5b5051600380546001600160a01b0319166001600160a01b03909216919091179055610a34806100636000396000f3fe60806040526004361061008a5760003560e01c8063aff4f88e11610059578063aff4f88e14610144578063be0d17411461016e578063bee4c83814610200578063ce4ef10e1461022a578063ebbc8d241461023f57610091565b806319ffd7ce14610096578063249ab761146100c257806387730b26146100e9578063923b0aa81461011a57610091565b3661009157005b600080fd5b3480156100a257600080fd5b506100c0600480360360208110156100b957600080fd5b5035610254565b005b3480156100ce57600080fd5b506100d76103e5565b60408051918252519081900360200190f35b3480156100f557600080fd5b506100fe6103eb565b604080516001600160a01b039092168252519081900360200190f35b34801561012657600080fd5b506100c06004803603602081101561013d57600080fd5b50356103fa565b34801561015057600080fd5b506100c06004803603602081101561016757600080fd5b5035610485565b34801561017a57600080fd5b506100d76004803603606081101561019157600080fd5b6001600160a01b03823516916020810135918101906060810160408201356401000000008111156101c157600080fd5b8201836020820111156101d357600080fd5b803590602001918460018302840111640100000000831117156101f557600080fd5b509092509050610498565b34801561020c57600080fd5b506100c06004803603602081101561022357600080fd5b50356109b4565b34801561023657600080fd5b506100fe6109c7565b34801561024b57600080fd5b506100d76109d6565b60405160609060009060200180825b60ff168152604080518083038152602080840180845260035463095ea7b360e01b9091526001600160a01b03166024850181905260448501899052925191965091945063095ea7b393506064808401938290030181600087803b1580156102c957600080fd5b505af11580156102dd573d6000803e3d6000fd5b505050506040513d60208110156102f357600080fd5b505060035460405163dcd69e6960e01b81523060048201818152602483018690526060604484019081528551606485015285516001600160a01b039095169463dcd69e6994889388939092909160840190602085019080838360005b8381101561036757818101518382015260200161034f565b50505050905090810190601f1680156103945780820380516001836020036101000a031916815260200191505b50945050505050602060405180830381600087803b1580156103b557600080fd5b505af11580156103c9573d6000803e3d6000fd5b505050506040513d60208110156103df57600080fd5b50505050565b60015481565b6002546001600160a01b031681565b6040805160016020808301919091528251808303820181528284019384905260035463dcd69e6960e01b909452306044840181815260648501879052606060848601908152835160a4870152835193966001600160a01b03169563dcd69e6995939489948994939260c40191908501908083836000831561036757818101518382015260200161034f565b6040516060906002906020018082610263565b600080838360208110156104ab57600080fd5b50600280546001600160a01b0319166001600160a01b03891617905560018690553560ff16905060008160038111156104e057fe5b141561056557600354604080516370a0823160e01b815230600482015290516001600160a01b03909216916370a0823191602480820192602092909190829003018186803b15801561053157600080fd5b505afa158015610545573d6000803e3d6000fd5b505050506040513d602081101561055b57600080fd5b5051600055610992565b600281600381111561057357fe5b1415610646576003546040805163c4658b4360e01b81526004810188905290516001600160a01b039092169163c4658b439160248082019260009290919082900301818387803b1580156105c657600080fd5b505af11580156105da573d6000803e3d6000fd5b5050476000908155600354604080516324bb289160e01b815290516001600160a01b0390921694506324bb289193508992600480830193919282900301818588803b15801561062857600080fd5b505af115801561063c573d6000803e3d6000fd5b5050505050610992565b600181600381111561065457fe5b141561076f57600354604080516370a0823160e01b815230600482015290516001600160a01b039092169163a9059cbb917390f79bf6eb2c4f870365e785982e1f101e93b9069184916370a08231916024808301926020929190829003018186803b1580156106c257600080fd5b505afa1580156106d6573d6000803e3d6000fd5b505050506040513d60208110156106ec57600080fd5b5051604080516001600160e01b031960e086901b1681526001600160a01b03909316600484015260248301919091525160448083019260209291908290030181600087803b15801561073d57600080fd5b505af1158015610751573d6000803e3d6000fd5b505050506040513d602081101561076757600080fd5b506109929050565b600381600381111561077d57fe5b141561099257604080516000602080830191909152825180830382018152828401808552600354636eb1769f60e11b9091523060448501526001600160a01b031660648401819052935190939263095ea7b392849260028c0292849263dd62ed3e92608480840193829003018186803b1580156107f957600080fd5b505afa15801561080d573d6000803e3d6000fd5b505050506040513d602081101561082357600080fd5b5051604080516001600160e01b031960e087901b1681526001600160a01b039094166004850152910160248301525160448083019260209291908290030181600087803b15801561087357600080fd5b505af1158015610887573d6000803e3d6000fd5b505050506040513d602081101561089d57600080fd5b505060035460405163dcd69e6960e01b8152306004820181815260028a02602484018190526060604485019081528651606486015286516001600160a01b039096169563dcd69e699592938893909291608490910190602085019080838360005b838110156109165781810151838201526020016108fe565b50505050905090810190601f1680156109435780820380516001836020036101000a031916815260200191505b50945050505050602060405180830381600087803b15801561096457600080fd5b505af1158015610978573d6000803e3d6000fd5b505050506040513d602081101561098e57600080fd5b5050505b6040518060226109dd8239604051908190036022019020979650505050505050565b6040516060906003906020018082610263565b6003546001600160a01b031681565b6000548156fe4953617473466c617368426f72726f7765722e6f6e53617473466c6173684c6f616ea26469706673582212206eb65686d459bd5bc3bf877565cd25a09947d14bd9864fc9d20062118c70ced964736f6c634300060b0033",
  "linkReferences": {},
  "deployedLinkReferences": {}
}