{
  "_format": "hh-sol-artifact-1",
  "contractName": "FlashTest",
  "sourceName": "contracts/tests/FlashTest.sol",
  "abi": [
    {
      "inputs": [
        {
          "internalType": "address",
          "name": "_borrowProxy",
          "type": "address"
        },
        {
          "internalType": "address payable",
          "name": "_satoshi",
          "type": "address"
        }
      ],
      "stateMutability": "nonpayable",
      "type": "constructor"
    },
    {
      "inputs": [],
      "name": "borrowProxy",
      "outputs": [
        {
          "internalType": "address",
          "name": "",
          "type": "address"
        }
      ],
      "stateMutability": "view",
      "type": "function"
    },
    {
      "inputs": [
        {
          "internalType": "uint256",
          "name": "_amountPayback",
          "type": "uint256"
        },
        {
          "internalType": "uint256",
          "name": "attack_type",
          "type": "uint256"
        },
        {
          "internalType": "address",
          "name": "_user",
          "type": "address"
        }
      ],
      "name": "falshCallback_Reent",
      "outputs": [],
      "stateMutability": "nonpayable",
      "type": "function"
    },
    {
      "inputs": [
        {
          "internalType": "uint256",
          "name": "_amountPayback",
          "type": "uint256"
        },
        {
          "internalType": "address",
          "name": "_user",
          "type": "address"
        }
      ],
      "name": "flashCallback",
      "outputs": [],
      "stateMutability": "nonpayable",
      "type": "function"
    },
    {
      "inputs": [
        {
          "internalType": "uint256",
          "name": "_amountToBorrow",
          "type": "uint256"
        },
        {
          "internalType": "uint256",
          "name": "_amountPayback",
          "type": "uint256"
        }
      ],
      "name": "normalFlashloan",
      "outputs": [],
      "stateMutability": "nonpayable",
      "type": "function"
    },
    {
      "inputs": [
        {
          "internalType": "uint256",
          "name": "_amountToBorrow",
          "type": "uint256"
        },
        {
          "internalType": "uint256",
          "name": "_amountPayback",
          "type": "uint256"
        }
      ],
      "name": "reentFalshloan",
      "outputs": [],
      "stateMutability": "nonpayable",
      "type": "function"
    },
    {
      "inputs": [],
      "name": "satoshi",
      "outputs": [
        {
          "internalType": "address payable",
          "name": "",
          "type": "address"
        }
      ],
      "stateMutability": "view",
      "type": "function"
    },
    {
      "stateMutability": "payable",
      "type": "receive"
    }
  ],
  "bytecode": "0x608060405234801561001057600080fd5b506040516107ef3803806107ef8339818101604052604081101561003357600080fd5b508051602090910151600080546001600160a01b039384166001600160a01b031991821617909155600180549390921692169190911790556107758061007a6000396000f3fe6080604052600436106100595760003560e01c806351eafe1f1461006557806352799cc9146100a657806372d730f7146100d75780638d522ebf14610107578063ce4ef10e14610137578063dcaedb601461014c57610060565b3661006057005b600080fd5b34801561007157600080fd5b506100a46004803603606081101561008857600080fd5b50803590602081013590604001356001600160a01b0316610185565b005b3480156100b257600080fd5b506100bb610308565b604080516001600160a01b039092168252519081900360200190f35b3480156100e357600080fd5b506100a4600480360360408110156100fa57600080fd5b5080359060200135610317565b34801561011357600080fd5b506100a46004803603604081101561012a57600080fd5b5080359060200135610421565b34801561014357600080fd5b506100bb6104c1565b34801561015857600080fd5b506100a46004803603604081101561016f57600080fd5b50803590602001356001600160a01b03166104d0565b6000546001600160a01b03163314156103035760015460408051602480820187905233604480840191909152835180840382018152606493840185526020810180516001600160e01b03166306e576db60e51b178152855163f05f0e4f60e01b8152600481018b815294810196875282519381019390935281516001600160a01b039097169663f05f0e4f968b96939594909301919080838360005b83811015610239578181015183820152602001610221565b50505050905090810190601f1680156102665780820380516001836020036101000a031916815260200191505b509350505050600060405180830381600087803b15801561028657600080fd5b505af115801561029a573d6000803e3d6000fd5b5050600154604080516324bb289160e01b815290514794506001600160a01b0390921692506324bb289191879160048082019260009290919082900301818588803b1580156102e857600080fd5b505af11580156102fc573d6000803e3d6000fd5b5050505050505b505050565b6000546001600160a01b031681565b60015460408051602480820185905233604480840191909152835180840382018152606493840185526020810180516001600160e01b03166306e576db60e51b178152855163f05f0e4f60e01b8152600481018a815294810196875282519381019390935281516001600160a01b039097169663f05f0e4f968a96939594909301919080838360005b838110156103b85781810151838201526020016103a0565b50505050905090810190601f1680156103e55780820380516001836020036101000a031916815260200191505b509350505050600060405180830381600087803b15801561040557600080fd5b505af1158015610419573d6000803e3d6000fd5b505050505050565b60015460408051602480820185905233604480840191909152835180840382018152606493840185526020810180516001600160e01b03166351eafe1f60e01b178152855163f05f0e4f60e01b8152600481018a815294810196875282519381019390935281516001600160a01b039097169663f05f0e4f968a9693959490930191908083836000838110156103b85781810151838201526020016103a0565b6001546001600160a01b031681565b6000546001600160a01b031633141561066c576105136040518060400160405280600e81526020016d5f616d6f756e745061796261636b60901b81525083610670565b60408051808201909152600781526662616c616e636560c81b6020820152479061053d9082610670565b6001546040516000916001600160a01b03169085908381818185875af1925050503d806000811461058a576040519150601f19603f3d011682016040523d82523d6000602084013e61058f565b606091505b50509050806105e5576040805162461bcd60e51b815260206004820152601c60248201527f466c617368746573743a204661696c656420746f207061796261636b00000000604482015290519081900360640190fd5b6040805180820190915260068152651c1c9bd99a5d60d21b6020820152479061060e9082610670565b8015610668576040516001600160a01b038516908290600081818185875af1925050503d806000811461065d576040519150601f19603f3d011682016040523d82523d6000602084013e610662565b606091505b50909250505b5050505b5050565b61066c82826040516024018080602001838152602001828103825284818151815260200191508051906020019080838360005b838110156106bb5781810151838201526020016106a3565b50505050905090810190601f1680156106e85780820380516001836020036101000a031916815260200191505b5060408051601f198184030181529190526020810180516001600160e01b03166309710a9d60e41b179052935061071e92505050565b80516a636f6e736f6c652e6c6f67602083016000808483855afa505050505056fea2646970667358221220f66c1ad0ef4848426d585ffa11f16fbb14a35d45f2727abaed3b741835c678e164736f6c634300060b0033",
  "linkReferences": {},
  "deployedLinkReferences": {}
}