{
  "_format": "hh-sol-artifact-1",
  "contractName": "BorrowerProxy",
  "sourceName": "contracts/SATOSHI.sol",
  "abi": [
    {
      "inputs": [],
      "stateMutability": "nonpayable",
      "type": "constructor"
    },
    {
      "inputs": [
        {
          "internalType": "address",
          "name": "_caller",
          "type": "address"
        },
        {
          "internalType": "bytes",
          "name": "_data",
          "type": "bytes"
        }
      ],
      "name": "lend",
      "outputs": [],
      "stateMutability": "payable",
      "type": "function"
    }
  ],
  "bytecode": "0x608060405234801561001057600080fd5b50600080546001600160a01b0319163317905561022d806100326000396000f3fe60806040526004361061001e5760003560e01c8063d5badabc14610023575b600080fd5b6100a36004803603604081101561003957600080fd5b6001600160a01b03823516919081019060408101602082013564010000000081111561006457600080fd5b82018360208201111561007657600080fd5b8035906020019184600183028401116401000000008311171561009857600080fd5b5090925090506100a5565b005b6000546001600160a01b031633146100ee5760405162461bcd60e51b815260040180806020018281038252602481526020018061019a6024913960400191505060405180910390fd5b6000836001600160a01b0316348484604051808383808284376040519201945060009350909150508083038185875af1925050503d806000811461014e576040519150601f19603f3d011682016040523d82523d6000602084013e610153565b606091505b50509050806101935760405162461bcd60e51b815260040180806020018281038252603a8152602001806101be603a913960400191505060405180910390fd5b5050505056fe426f72726f77657250726f78793a2043616c6c6572206973206e6f74205341544f534849426f72726f77657250726f78793a20426f72726f77657220636f6e747261637420726576657274656420647572696e6720657865637574696f6ea2646970667358221220481af109ff453f4ecf2cdcb4c8bc096ac766f2dd6c58d4f2395f372cdef57f9164736f6c634300060b0033",
  "linkReferences": {},
  "deployedLinkReferences": {}
}