{
  "_format": "hh-sol-artifact-1",
  "contractName": "SATOSHI",
  "sourceName": "contracts/SATOSHI.sol",
  "abi": [
    {
      "inputs": [],
      "stateMutability": "nonpayable",
      "type": "constructor"
    },
    {
      "anonymous": false,
      "inputs": [
        {
          "indexed": true,
          "internalType": "address",
          "name": "owner",
          "type": "address"
        },
        {
          "indexed": true,
          "internalType": "address",
          "name": "spender",
          "type": "address"
        },
        {
          "indexed": false,
          "internalType": "uint256",
          "name": "value",
          "type": "uint256"
        }
      ],
      "name": "Approval",
      "type": "event"
    },
    {
      "anonymous": false,
      "inputs": [
        {
          "indexed": false,
          "internalType": "uint256",
          "name": "sats_amt",
          "type": "uint256"
        },
        {
          "indexed": false,
          "internalType": "address",
          "name": "_user",
          "type": "address"
        }
      ],
      "name": "DepositRBTC",
      "type": "event"
    },
    {
      "anonymous": false,
      "inputs": [
        {
          "indexed": false,
          "internalType": "uint256",
          "name": "_amount",
          "type": "uint256"
        },
        {
          "indexed": false,
          "internalType": "address",
          "name": "_borrower",
          "type": "address"
        }
      ],
      "name": "FlashBTC",
      "type": "event"
    },
    {
      "anonymous": false,
      "inputs": [
        {
          "indexed": false,
          "internalType": "uint256",
          "name": "_amount",
          "type": "uint256"
        },
        {
          "indexed": false,
          "internalType": "address",
          "name": "_borrower",
          "type": "address"
        }
      ],
      "name": "FlashMintSATS",
      "type": "event"
    },
    {
      "anonymous": false,
      "inputs": [
        {
          "indexed": true,
          "internalType": "address",
          "name": "from",
          "type": "address"
        },
        {
          "indexed": true,
          "internalType": "address",
          "name": "to",
          "type": "address"
        },
        {
          "indexed": false,
          "internalType": "uint256",
          "name": "value",
          "type": "uint256"
        }
      ],
      "name": "Transfer",
      "type": "event"
    },
    {
      "anonymous": false,
      "inputs": [
        {
          "indexed": false,
          "internalType": "uint256",
          "name": "sats_amt",
          "type": "uint256"
        },
        {
          "indexed": false,
          "internalType": "address",
          "name": "_user",
          "type": "address"
        }
      ],
      "name": "WithdrawRBTC",
      "type": "event"
    },
    {
      "inputs": [],
      "name": "CALLBACK_SUCCESS_SATS",
      "outputs": [
        {
          "internalType": "bytes32",
          "name": "",
          "type": "bytes32"
        }
      ],
      "stateMutability": "view",
      "type": "function"
    },
    {
      "inputs": [
        {
          "internalType": "address",
          "name": "owner",
          "type": "address"
        },
        {
          "internalType": "address",
          "name": "spender",
          "type": "address"
        }
      ],
      "name": "allowance",
      "outputs": [
        {
          "internalType": "uint256",
          "name": "",
          "type": "uint256"
        }
      ],
      "stateMutability": "view",
      "type": "function"
    },
    {
      "inputs": [
        {
          "internalType": "address",
          "name": "spender",
          "type": "address"
        },
        {
          "internalType": "uint256",
          "name": "amount",
          "type": "uint256"
        }
      ],
      "name": "approve",
      "outputs": [
        {
          "internalType": "bool",
          "name": "",
          "type": "bool"
        }
      ],
      "stateMutability": "nonpayable",
      "type": "function"
    },
    {
      "inputs": [
        {
          "internalType": "address",
          "name": "account",
          "type": "address"
        }
      ],
      "name": "balanceOf",
      "outputs": [
        {
          "internalType": "uint256",
          "name": "",
          "type": "uint256"
        }
      ],
      "stateMutability": "view",
      "type": "function"
    },
    {
      "inputs": [],
      "name": "borrower",
      "outputs": [
        {
          "internalType": "contract BorrowerProxy",
          "name": "",
          "type": "address"
        }
      ],
      "stateMutability": "view",
      "type": "function"
    },
    {
      "inputs": [],
      "name": "borrower_ads",
      "outputs": [
        {
          "internalType": "address",
          "name": "",
          "type": "address"
        }
      ],
      "stateMutability": "view",
      "type": "function"
    },
    {
      "inputs": [],
      "name": "decimals",
      "outputs": [
        {
          "internalType": "uint8",
          "name": "",
          "type": "uint8"
        }
      ],
      "stateMutability": "view",
      "type": "function"
    },
    {
      "inputs": [
        {
          "internalType": "address",
          "name": "spender",
          "type": "address"
        },
        {
          "internalType": "uint256",
          "name": "subtractedValue",
          "type": "uint256"
        }
      ],
      "name": "decreaseAllowance",
      "outputs": [
        {
          "internalType": "bool",
          "name": "",
          "type": "bool"
        }
      ],
      "stateMutability": "nonpayable",
      "type": "function"
    },
    {
      "inputs": [],
      "name": "depositRBTC",
      "outputs": [],
      "stateMutability": "payable",
      "type": "function"
    },
    {
      "inputs": [
        {
          "internalType": "address",
          "name": "_user",
          "type": "address"
        }
      ],
      "name": "depositRBTCto",
      "outputs": [],
      "stateMutability": "payable",
      "type": "function"
    },
    {
      "inputs": [
        {
          "internalType": "uint256",
          "name": "_amount",
          "type": "uint256"
        },
        {
          "internalType": "bytes",
          "name": "_data",
          "type": "bytes"
        }
      ],
      "name": "flashBTC",
      "outputs": [],
      "stateMutability": "payable",
      "type": "function"
    },
    {
      "inputs": [
        {
          "internalType": "contract ISatsFlashBorrower",
          "name": "_borrower",
          "type": "address"
        },
        {
          "internalType": "uint256",
          "name": "_amount",
          "type": "uint256"
        },
        {
          "internalType": "bytes",
          "name": "_data",
          "type": "bytes"
        }
      ],
      "name": "flashMintSATS",
      "outputs": [
        {
          "internalType": "bool",
          "name": "",
          "type": "bool"
        }
      ],
      "stateMutability": "nonpayable",
      "type": "function"
    },
    {
      "inputs": [],
      "name": "getCeiling",
      "outputs": [
        {
          "internalType": "uint256",
          "name": "",
          "type": "uint256"
        }
      ],
      "stateMutability": "view",
      "type": "function"
    },
    {
      "inputs": [],
      "name": "getRBTCBalance",
      "outputs": [
        {
          "internalType": "uint256",
          "name": "",
          "type": "uint256"
        }
      ],
      "stateMutability": "view",
      "type": "function"
    },
    {
      "inputs": [],
      "name": "getSATSandRBTCratio",
      "outputs": [
        {
          "internalType": "uint256",
          "name": "",
          "type": "uint256"
        }
      ],
      "stateMutability": "view",
      "type": "function"
    },
    {
      "inputs": [
        {
          "internalType": "address",
          "name": "spender",
          "type": "address"
        },
        {
          "internalType": "uint256",
          "name": "addedValue",
          "type": "uint256"
        }
      ],
      "name": "increaseAllowance",
      "outputs": [
        {
          "internalType": "bool",
          "name": "",
          "type": "bool"
        }
      ],
      "stateMutability": "nonpayable",
      "type": "function"
    },
    {
      "inputs": [],
      "name": "name",
      "outputs": [
        {
          "internalType": "string",
          "name": "",
          "type": "string"
        }
      ],
      "stateMutability": "view",
      "type": "function"
    },
    {
      "inputs": [],
      "name": "symbol",
      "outputs": [
        {
          "internalType": "string",
          "name": "",
          "type": "string"
        }
      ],
      "stateMutability": "view",
      "type": "function"
    },
    {
      "inputs": [],
      "name": "totalSupply",
      "outputs": [
        {
          "internalType": "uint256",
          "name": "",
          "type": "uint256"
        }
      ],
      "stateMutability": "view",
      "type": "function"
    },
    {
      "inputs": [
        {
          "internalType": "address",
          "name": "recipient",
          "type": "address"
        },
        {
          "internalType": "uint256",
          "name": "amount",
          "type": "uint256"
        }
      ],
      "name": "transfer",
      "outputs": [
        {
          "internalType": "bool",
          "name": "",
          "type": "bool"
        }
      ],
      "stateMutability": "nonpayable",
      "type": "function"
    },
    {
      "inputs": [
        {
          "internalType": "address",
          "name": "sender",
          "type": "address"
        },
        {
          "internalType": "address",
          "name": "recipient",
          "type": "address"
        },
        {
          "internalType": "uint256",
          "name": "amount",
          "type": "uint256"
        }
      ],
      "name": "transferFrom",
      "outputs": [
        {
          "internalType": "bool",
          "name": "",
          "type": "bool"
        }
      ],
      "stateMutability": "nonpayable",
      "type": "function"
    },
    {
      "inputs": [
        {
          "internalType": "uint256",
          "name": "sats_amt",
          "type": "uint256"
        }
      ],
      "name": "withdrawRBTC",
      "outputs": [],
      "stateMutability": "nonpayable",
      "type": "function"
    },
    {
      "inputs": [
        {
          "internalType": "uint256",
          "name": "sats_amt",
          "type": "uint256"
        },
        {
          "internalType": "address",
          "name": "_user",
          "type": "address"
        }
      ],
      "name": "withdrawRBTCto",
      "outputs": [],
      "stateMutability": "nonpayable",
      "type": "function"
    },
    {
      "stateMutability": "payable",
      "type": "receive"
    }
  ],
  "bytecode": "0x60806040526305f5e100600655670de0b6b3a76400006007556b033b2e3c9fd0803ce80000006008556000196009553480156200003b57600080fd5b5060408051808201825260078152665341544f53484960c81b6020808301918252835180850190945260048452635341545360e01b908401528151919291620000879160039162000117565b5080516200009d90600490602084019062000117565b50506005805461ff001960ff199091166012171661010017905550604051620000c6906200019c565b604051809103906000f080158015620000e3573d6000803e3d6000fd5b50600b80546001600160a01b03199081166001600160a01b039384161791829055600c8054929093169116179055620001ca565b828054600181600116156101000203166002900490600052602060002090601f016020900481019282601f106200015a57805160ff19168380011785556200018a565b828001600101855582156200018a579182015b828111156200018a5782518255916020019190600101906200016d565b5062000198929150620001aa565b5090565b61025f806200204783390190565b620001c791905b80821115620001985760008155600101620001b1565b90565b611e6d80620001da6000396000f3fe6080604052600436106101445760003560e01c806395d89b41116100b6578063d92e51d61161006f578063d92e51d614610479578063dcd69e69146104b2578063dd62ed3e14610544578063e21adc6c1461057f578063e71f7f7314610594578063f05f0e4f146105a95761014b565b806395d89b411461039e578063a457c2d7146103b3578063a9059cbb146103ec578063aa425bc614610425578063b0128c081461043a578063c4658b431461044f5761014b565b8063313ce56711610108578063313ce5671461029b57806339509351146102c65780636ecfed5b146102ff57806370a08231146103145780637df1f1b9146103475780638098426e146103785761014b565b806306fdde0314610150578063095ea7b3146101da57806318160ddd1461022757806323b872dd1461024e57806324bb2891146102915761014b565b3661014b57005b600080fd5b34801561015c57600080fd5b50610165610620565b6040805160208082528351818301528351919283929083019185019080838360005b8381101561019f578181015183820152602001610187565b50505050905090810190601f1680156101cc5780820380516001836020036101000a031916815260200191505b509250505060405180910390f35b3480156101e657600080fd5b50610213600480360360408110156101fd57600080fd5b506001600160a01b0381351690602001356106b6565b604080519115158252519081900360200190f35b34801561023357600080fd5b5061023c6106d4565b60408051918252519081900360200190f35b34801561025a57600080fd5b506102136004803603606081101561027157600080fd5b506001600160a01b038135811691602081013590911690604001356106da565b610299610767565b005b3480156102a757600080fd5b506102b061082b565b6040805160ff9092168252519081900360200190f35b3480156102d257600080fd5b50610213600480360360408110156102e957600080fd5b506001600160a01b038135169060200135610834565b34801561030b57600080fd5b5061023c610888565b34801561032057600080fd5b5061023c6004803603602081101561033757600080fd5b50356001600160a01b03166108a3565b34801561035357600080fd5b5061035c6108be565b604080516001600160a01b039092168252519081900360200190f35b6102996004803603602081101561038e57600080fd5b50356001600160a01b03166108cd565b3480156103aa57600080fd5b5061016561099b565b3480156103bf57600080fd5b50610213600480360360408110156103d657600080fd5b506001600160a01b0381351690602001356109fc565b3480156103f857600080fd5b506102136004803603604081101561040f57600080fd5b506001600160a01b038135169060200135610a6a565b34801561043157600080fd5b5061023c610a7e565b34801561044657600080fd5b5061023c610abc565b34801561045b57600080fd5b506102996004803603602081101561047257600080fd5b5035610acb565b34801561048557600080fd5b506102996004803603604081101561049c57600080fd5b50803590602001356001600160a01b0316610c91565b3480156104be57600080fd5b50610213600480360360608110156104d557600080fd5b6001600160a01b038235169160208101359181019060608101604082013564010000000081111561050557600080fd5b82018360208201111561051757600080fd5b8035906020019184600183028401116401000000008311171561053957600080fd5b509092509050610e6a565b34801561055057600080fd5b5061023c6004803603604081101561056757600080fd5b506001600160a01b03813581169160200135166111a8565b34801561058b57600080fd5b5061023c6111d3565b3480156105a057600080fd5b5061035c6111d7565b610299600480360360408110156105bf57600080fd5b813591908101906040810160208201356401000000008111156105e157600080fd5b8201836020820111156105f357600080fd5b8035906020019184600183028401116401000000008311171561061557600080fd5b5090925090506111e6565b60038054604080516020601f60026000196101006001881615020190951694909404938401819004810282018101909252828152606093909290918301828280156106ac5780601f10610681576101008083540402835291602001916106ac565b820191906000526020600020905b81548152906001019060200180831161068f57829003601f168201915b5050505050905090565b60006106ca6106c361148b565b848461148f565b5060015b92915050565b60025490565b60006106e784848461157b565b61075d846106f361148b565b61075885604051806060016040528060288152602001611d81602891396001600160a01b038a1660009081526001602052604081209061073161148b565b6001600160a01b03168152602081019190915260400160002054919063ffffffff6116e216565b61148f565b5060019392505050565b600554610100900460ff166107b1576040805162461bcd60e51b815260206004820152601f6024820152600080516020611c3e833981519152604482015290519081900360640190fd5b6005805461ff00191690556006546000906107d390349063ffffffff61177916565b90506107df33826117d9565b6040805182815233602082015281517f7c88e8e19d113c7f49740c5f1fc5a93ed69d29cde1d1c0534b27c755575947fd929181900390910190a1506005805461ff001916610100179055565b60055460ff1690565b60006106ca61084161148b565b84610758856001600061085261148b565b6001600160a01b03908116825260208083019390935260409182016000908120918c16815292529020549063ffffffff6118d516565b604051806022611bf982396022019050604051809103902081565b6001600160a01b031660009081526020819052604090205490565b600b546001600160a01b031681565b600554610100900460ff16610917576040805162461bcd60e51b815260206004820152601f6024820152600080516020611c3e833981519152604482015290519081900360640190fd5b6005805461ff001916905560065460009061093990349063ffffffff61177916565b905061094582826117d9565b604080518281526001600160a01b038416602082015281517f7c88e8e19d113c7f49740c5f1fc5a93ed69d29cde1d1c0534b27c755575947fd929181900390910190a150506005805461ff001916610100179055565b60048054604080516020601f60026000196101006001881615020190951694909404938401819004810282018101909252828152606093909290918301828280156106ac5780601f10610681576101008083540402835291602001916106ac565b60006106ca610a0961148b565b8461075885604051806060016040528060258152602001611e136025913960016000610a3361148b565b6001600160a01b03908116825260208083019390935260409182016000908120918d1681529252902054919063ffffffff6116e216565b60006106ca610a7761148b565b848461157b565b6000610ab7610a8b6111d3565b610aab600654610aab600754610a9f6106d4565b9063ffffffff61177916565b9063ffffffff61192f16565b905090565b6000610ab7600a610aab6106d4565b600554610100900460ff16610b15576040805162461bcd60e51b815260206004820152601f6024820152600080516020611c3e833981519152604482015290519081900360640190fd5b6005805461ff0019169055610b29336108a3565b811115610b7d576040805162461bcd60e51b815260206004820152601b60248201527f5341544f5348493a204e6f7420656e6f7567682062616c616e63650000000000604482015290519081900360640190fd5b6000610b9a610b8a6106d4565b610aab844763ffffffff61177916565b9050610ba63383611971565b604051600090339083908381818185875af1925050503d8060008114610be8576040519150601f19603f3d011682016040523d82523d6000602084013e610bed565b606091505b5050905080610c43576040805162461bcd60e51b815260206004820152601e60248201527f5341544f5348493a20436f756c646e2774207472616e73666572204254430000604482015290519081900360640190fd5b6040805184815233602082015281517f8804b7101f710721d75373e618319d80950a864fe01a0ebe7525bbf0c324d7f2929181900390910190a150506005805461ff00191661010017905550565b600554610100900460ff16610cdb576040805162461bcd60e51b815260206004820152601f6024820152600080516020611c3e833981519152604482015290519081900360640190fd5b6005805461ff0019169055610cef336108a3565b821115610d43576040805162461bcd60e51b815260206004820152601b60248201527f5341544f5348493a204e6f7420656e6f7567682062616c616e63650000000000604482015290519081900360640190fd5b6000610d60610d506106d4565b610aab854763ffffffff61177916565b9050610d6c3384611971565b6040516000906001600160a01b0384169083908381818185875af1925050503d8060008114610db7576040519150601f19603f3d011682016040523d82523d6000602084013e610dbc565b606091505b5050905080610e12576040805162461bcd60e51b815260206004820152601e60248201527f5341544f5348493a20436f756c646e2774207472616e73666572204254430000604482015290519081900360640190fd5b604080518581526001600160a01b038516602082015281517f8804b7101f710721d75373e618319d80950a864fe01a0ebe7525bbf0c324d7f2929181900390910190a150506005805461ff0019166101001790555050565b600554600090610100900460ff16610eb7576040805162461bcd60e51b815260206004820152601f6024820152600080516020611c3e833981519152604482015290519081900360640190fd5b6005805461ff001916905583610f0b576040805162461bcd60e51b81526020600482015260146024820152735341544f5348493a20416d6f756e74205a65726f60601b604482015290519081900360640190fd5b610f13610abc565b600a819055841115610f565760405162461bcd60e51b8152600401808060200182810382526021815260200180611d3f6021913960400191505060405180910390fd5b610f8b6040518060400160405280600c81526020016b746f74616c737570706c793160a01b815250610f866106d4565b611a79565b610f9585856117d9565b610fc56040518060400160405280600c81526020016b3a37ba30b639bab838363c9960a11b815250610f866106d4565b604051806022611bf9823960405190819003602201812063be0d174160e01b82526001600160a01b038816600483018181526024840189905260606044850190815260648501889052929450909263be0d1741928a928a928a928a9291608401848480828437600081840152601f19601f82011690508083019250505095505050505050602060405180830381600087803b15801561106357600080fd5b505af1158015611077573d6000803e3d6000fd5b505050506040513d602081101561108d57600080fd5b5051146110e1576040805162461bcd60e51b815260206004820152601860248201527f5341544f5348493a2043616c6c6261636b204661696c65640000000000000000604482015290519081900360640190fd5b6111116040518060400160405280600c81526020016b746f74616c737570706c793360a01b815250610f866106d4565b61111b8585611971565b61114b6040518060400160405280600c81526020016b1d1bdd185b1cdd5c1c1b1e4d60a21b815250610f866106d4565b604080518581526001600160a01b038716602082015281517fe8ec7a57a0eeda47ffe719c21e1eeafadd9c972adb07e10c923a3a7551cdb8d4929181900390910190a15060016005805461ff001916610100179055949350505050565b6001600160a01b03918216600090815260016020908152604080832093909416825291909152205490565b4790565b600c546001600160a01b031681565b600554610100900460ff16611230576040805162461bcd60e51b815260206004820152601f6024820152600080516020611c3e833981519152604482015290519081900360640190fd5b6005805461ff001916905582611284576040805162461bcd60e51b81526020600482015260146024820152735341544f5348493a20416d6f756e74205a65726f60601b604482015290519081900360640190fd5b47808411156112c45760405162461bcd60e51b8152600401808060200182810382526043815260200180611ca26043913960600191505060405180910390fd5b604051600090339086908381818185875af1925050503d8060008114611306576040519150601f19603f3d011682016040523d82523d6000602084013e61130b565b606091505b5050905080611361576040805162461bcd60e51b815260206004820152601e60248201527f5341544f5348493a20436f756c646e2774207472616e73666572204254430000604482015290519081900360640190fd5b600b546040805163356eb6af60e21b8152336004820181815260248301938452604483018890526001600160a01b039094169363d5badabc9391928992899291606401848480828437600081840152601f19601f820116905080830192505050945050505050600060405180830381600087803b1580156113e157600080fd5b505af11580156113f5573d6000803e3d6000fd5b5047925050508281101561143a5760405162461bcd60e51b8152600401808060200182810382526034815260200180611ce56034913960400191505060405180910390fd5b6040805187815233602082015281517f442699a83e86b4165acc62d862ae54407c62a4451d9e2e23b5353d2e2d0fb883929181900390910190a150506005805461ff00191661010017905550505050565b3390565b6001600160a01b0383166114d45760405162461bcd60e51b8152600401808060200182810382526024815260200180611def6024913960400191505060405180910390fd5b6001600160a01b0382166115195760405162461bcd60e51b8152600401808060200182810382526022815260200180611c806022913960400191505060405180910390fd5b6001600160a01b03808416600081815260016020908152604080832094871680845294825291829020859055815185815291517f8c5be1e5ebec7d5bd14f71427d1e84f3dd0314c0f7b2291e5b200ac8c7c3b9259281900390910190a3505050565b6001600160a01b0383166115c05760405162461bcd60e51b8152600401808060200182810382526025815260200180611dca6025913960400191505060405180910390fd5b6001600160a01b0382166116055760405162461bcd60e51b8152600401808060200182810382526023815260200180611c1b6023913960400191505060405180910390fd5b611610838383611b2b565b61165381604051806060016040528060268152602001611d19602691396001600160a01b038616600090815260208190526040902054919063ffffffff6116e216565b6001600160a01b038085166000908152602081905260408082209390935590841681522054611688908263ffffffff6118d516565b6001600160a01b038084166000818152602081815260409182902094909455805185815290519193928716927fddf252ad1be2c89b69c2b068fc378daa952ba7f163c4a11628f55a4df523b3ef92918290030190a3505050565b600081848411156117715760405162461bcd60e51b81526004018080602001828103825283818151815260200191508051906020019080838360005b8381101561173657818101518382015260200161171e565b50505050905090810190601f1680156117635780820380516001836020036101000a031916815260200191505b509250505060405180910390fd5b505050900390565b600082611788575060006106ce565b8282028284828161179557fe5b04146117d25760405162461bcd60e51b8152600401808060200182810382526021815260200180611d606021913960400191505060405180910390fd5b9392505050565b6001600160a01b038216611834576040805162461bcd60e51b815260206004820152601f60248201527f45524332303a206d696e7420746f20746865207a65726f206164647265737300604482015290519081900360640190fd5b61184060008383611b2b565b600254611853908263ffffffff6118d516565b6002556001600160a01b03821660009081526020819052604090205461187f908263ffffffff6118d516565b6001600160a01b0383166000818152602081815260408083209490945583518581529351929391927fddf252ad1be2c89b69c2b068fc378daa952ba7f163c4a11628f55a4df523b3ef9281900390910190a35050565b6000828201838110156117d2576040805162461bcd60e51b815260206004820152601b60248201527f536166654d6174683a206164646974696f6e206f766572666c6f770000000000604482015290519081900360640190fd5b60006117d283836040518060400160405280601a81526020017f536166654d6174683a206469766973696f6e206279207a65726f000000000000815250611b30565b6001600160a01b0382166119b65760405162461bcd60e51b8152600401808060200182810382526021815260200180611da96021913960400191505060405180910390fd5b6119c282600083611b2b565b611a0581604051806060016040528060228152602001611c5e602291396001600160a01b038516600090815260208190526040902054919063ffffffff6116e216565b6001600160a01b038316600090815260208190526040902055600254611a31908263ffffffff611b9516565b6002556040805182815290516000916001600160a01b038516917fddf252ad1be2c89b69c2b068fc378daa952ba7f163c4a11628f55a4df523b3ef9181900360200190a35050565b611b2782826040516024018080602001838152602001828103825284818151815260200191508051906020019080838360005b83811015611ac4578181015183820152602001611aac565b50505050905090810190601f168015611af15780820380516001836020036101000a031916815260200191505b5060408051601f198184030181529190526020810180516001600160e01b03166309710a9d60e41b1790529350611bd792505050565b5050565b505050565b60008183611b7f5760405162461bcd60e51b815260206004820181815283516024840152835190928392604490910191908501908083836000831561173657818101518382015260200161171e565b506000838581611b8b57fe5b0495945050505050565b60006117d283836040518060400160405280601e81526020017f536166654d6174683a207375627472616374696f6e206f766572666c6f7700008152506116e2565b80516a636f6e736f6c652e6c6f67602083016000808483855afa505050505056fe4953617473466c617368426f72726f7765722e6f6e53617473466c6173684c6f616e45524332303a207472616e7366657220746f20746865207a65726f20616464726573735265656e7472616e637947756172643a207265656e7472616e742063616c6c0045524332303a206275726e20616d6f756e7420657863656564732062616c616e636545524332303a20617070726f766520746f20746865207a65726f20616464726573735341544f5348493a205f616d6f756e7420657863656564732074686520626f72726f7761626c65206c696d69743b205242544320696e2074686520636f6e74726163745341544f5348493a20426f72726f776572206661696c656420746f2072657475726e2074686520626f72726f776564205242544345524332303a207472616e7366657220616d6f756e7420657863656564732062616c616e63655341544f5348493a20416d6f756e74206578636565647320746865206c696d6974536166654d6174683a206d756c7469706c69636174696f6e206f766572666c6f7745524332303a207472616e7366657220616d6f756e74206578636565647320616c6c6f77616e636545524332303a206275726e2066726f6d20746865207a65726f206164647265737345524332303a207472616e736665722066726f6d20746865207a65726f206164647265737345524332303a20617070726f76652066726f6d20746865207a65726f206164647265737345524332303a2064656372656173656420616c6c6f77616e63652062656c6f77207a65726fa2646970667358221220effd000789260e781da02e6150fb05e237fe743bef29f321cc0a3be34b04bbd764736f6c634300060b0033608060405234801561001057600080fd5b50600080546001600160a01b0319163317905561022d806100326000396000f3fe60806040526004361061001e5760003560e01c8063d5badabc14610023575b600080fd5b6100a36004803603604081101561003957600080fd5b6001600160a01b03823516919081019060408101602082013564010000000081111561006457600080fd5b82018360208201111561007657600080fd5b8035906020019184600183028401116401000000008311171561009857600080fd5b5090925090506100a5565b005b6000546001600160a01b031633146100ee5760405162461bcd60e51b815260040180806020018281038252602481526020018061019a6024913960400191505060405180910390fd5b6000836001600160a01b0316348484604051808383808284376040519201945060009350909150508083038185875af1925050503d806000811461014e576040519150601f19603f3d011682016040523d82523d6000602084013e610153565b606091505b50509050806101935760405162461bcd60e51b815260040180806020018281038252603a8152602001806101be603a913960400191505060405180910390fd5b5050505056fe426f72726f77657250726f78793a2043616c6c6572206973206e6f74205341544f534849426f72726f77657250726f78793a20426f72726f77657220636f6e747261637420726576657274656420647572696e6720657865637574696f6ea26469706673582212209cbdafb8d9f4a377fe1708ccf79fee08f210134ac75fdd75deb5c934397aa1f164736f6c634300060b0033",
  "linkReferences": {},
  "deployedLinkReferences": {}
}