{
  "_format": "hh-sol-artifact-1",
  "contractName": "SATOSHI",
  "sourceName": "contracts/SATOSHI.sol",
  "abi": [
    {
      "inputs": [],
      "stateMutability": "nonpayable",
      "type": "constructor"
    },
    {
      "anonymous": false,
      "inputs": [
        {
          "indexed": true,
          "internalType": "address",
          "name": "owner",
          "type": "address"
        },
        {
          "indexed": true,
          "internalType": "address",
          "name": "spender",
          "type": "address"
        },
        {
          "indexed": false,
          "internalType": "uint256",
          "name": "value",
          "type": "uint256"
        }
      ],
      "name": "Approval",
      "type": "event"
    },
    {
      "anonymous": false,
      "inputs": [
        {
          "indexed": false,
          "internalType": "uint256",
          "name": "sats_amt",
          "type": "uint256"
        },
        {
          "indexed": false,
          "internalType": "address",
          "name": "_user",
          "type": "address"
        }
      ],
      "name": "DepositRBTC",
      "type": "event"
    },
    {
      "anonymous": false,
      "inputs": [
        {
          "indexed": false,
          "internalType": "uint256",
          "name": "_amount",
          "type": "uint256"
        },
        {
          "indexed": false,
          "internalType": "address",
          "name": "_borrower",
          "type": "address"
        }
      ],
      "name": "FlashBTC",
      "type": "event"
    },
    {
      "anonymous": false,
      "inputs": [
        {
          "indexed": false,
          "internalType": "uint256",
          "name": "_amount",
          "type": "uint256"
        },
        {
          "indexed": false,
          "internalType": "address",
          "name": "_borrower",
          "type": "address"
        },
        {
          "indexed": false,
          "internalType": "bytes",
          "name": "_data",
          "type": "bytes"
        }
      ],
      "name": "FlashMintSATS",
      "type": "event"
    },
    {
      "anonymous": false,
      "inputs": [
        {
          "indexed": true,
          "internalType": "address",
          "name": "from",
          "type": "address"
        },
        {
          "indexed": true,
          "internalType": "address",
          "name": "to",
          "type": "address"
        },
        {
          "indexed": false,
          "internalType": "uint256",
          "name": "value",
          "type": "uint256"
        }
      ],
      "name": "Transfer",
      "type": "event"
    },
    {
      "anonymous": false,
      "inputs": [
        {
          "indexed": false,
          "internalType": "uint256",
          "name": "sats_amt",
          "type": "uint256"
        },
        {
          "indexed": false,
          "internalType": "address",
          "name": "_user",
          "type": "address"
        }
      ],
      "name": "WithdrawRBTC",
      "type": "event"
    },
    {
      "inputs": [],
      "name": "CALLBACK_SUCCESS_SATS",
      "outputs": [
        {
          "internalType": "bytes32",
          "name": "",
          "type": "bytes32"
        }
      ],
      "stateMutability": "view",
      "type": "function"
    },
    {
      "inputs": [
        {
          "internalType": "address",
          "name": "owner",
          "type": "address"
        },
        {
          "internalType": "address",
          "name": "spender",
          "type": "address"
        }
      ],
      "name": "allowance",
      "outputs": [
        {
          "internalType": "uint256",
          "name": "",
          "type": "uint256"
        }
      ],
      "stateMutability": "view",
      "type": "function"
    },
    {
      "inputs": [
        {
          "internalType": "address",
          "name": "spender",
          "type": "address"
        },
        {
          "internalType": "uint256",
          "name": "amount",
          "type": "uint256"
        }
      ],
      "name": "approve",
      "outputs": [
        {
          "internalType": "bool",
          "name": "",
          "type": "bool"
        }
      ],
      "stateMutability": "nonpayable",
      "type": "function"
    },
    {
      "inputs": [
        {
          "internalType": "address",
          "name": "account",
          "type": "address"
        }
      ],
      "name": "balanceOf",
      "outputs": [
        {
          "internalType": "uint256",
          "name": "",
          "type": "uint256"
        }
      ],
      "stateMutability": "view",
      "type": "function"
    },
    {
      "inputs": [],
      "name": "borrower",
      "outputs": [
        {
          "internalType": "contract BorrowerProxy",
          "name": "",
          "type": "address"
        }
      ],
      "stateMutability": "view",
      "type": "function"
    },
    {
      "inputs": [],
      "name": "borrower_ads",
      "outputs": [
        {
          "internalType": "address",
          "name": "",
          "type": "address"
        }
      ],
      "stateMutability": "view",
      "type": "function"
    },
    {
      "inputs": [],
      "name": "decimals",
      "outputs": [
        {
          "internalType": "uint8",
          "name": "",
          "type": "uint8"
        }
      ],
      "stateMutability": "view",
      "type": "function"
    },
    {
      "inputs": [
        {
          "internalType": "address",
          "name": "spender",
          "type": "address"
        },
        {
          "internalType": "uint256",
          "name": "subtractedValue",
          "type": "uint256"
        }
      ],
      "name": "decreaseAllowance",
      "outputs": [
        {
          "internalType": "bool",
          "name": "",
          "type": "bool"
        }
      ],
      "stateMutability": "nonpayable",
      "type": "function"
    },
    {
      "inputs": [],
      "name": "depositRBTC",
      "outputs": [],
      "stateMutability": "payable",
      "type": "function"
    },
    {
      "inputs": [
        {
          "internalType": "address",
          "name": "_user",
          "type": "address"
        }
      ],
      "name": "depositRBTCto",
      "outputs": [],
      "stateMutability": "payable",
      "type": "function"
    },
    {
      "inputs": [
        {
          "internalType": "uint256",
          "name": "_amount",
          "type": "uint256"
        },
        {
          "internalType": "bytes",
          "name": "_data",
          "type": "bytes"
        }
      ],
      "name": "flashBTC",
      "outputs": [],
      "stateMutability": "payable",
      "type": "function"
    },
    {
      "inputs": [
        {
          "internalType": "contract ISatsFlashBorrower",
          "name": "_borrower",
          "type": "address"
        },
        {
          "internalType": "uint256",
          "name": "_amount",
          "type": "uint256"
        },
        {
          "internalType": "bytes",
          "name": "_data",
          "type": "bytes"
        }
      ],
      "name": "flashMintSATS",
      "outputs": [
        {
          "internalType": "bool",
          "name": "",
          "type": "bool"
        }
      ],
      "stateMutability": "nonpayable",
      "type": "function"
    },
    {
      "inputs": [],
      "name": "getCeiling",
      "outputs": [
        {
          "internalType": "uint256",
          "name": "",
          "type": "uint256"
        }
      ],
      "stateMutability": "view",
      "type": "function"
    },
    {
      "inputs": [],
      "name": "getRBTCBalance",
      "outputs": [
        {
          "internalType": "uint256",
          "name": "",
          "type": "uint256"
        }
      ],
      "stateMutability": "view",
      "type": "function"
    },
    {
      "inputs": [],
      "name": "getSATSandRBTCratio",
      "outputs": [
        {
          "internalType": "uint256",
          "name": "",
          "type": "uint256"
        }
      ],
      "stateMutability": "view",
      "type": "function"
    },
    {
      "inputs": [
        {
          "internalType": "address",
          "name": "spender",
          "type": "address"
        },
        {
          "internalType": "uint256",
          "name": "addedValue",
          "type": "uint256"
        }
      ],
      "name": "increaseAllowance",
      "outputs": [
        {
          "internalType": "bool",
          "name": "",
          "type": "bool"
        }
      ],
      "stateMutability": "nonpayable",
      "type": "function"
    },
    {
      "inputs": [],
      "name": "name",
      "outputs": [
        {
          "internalType": "string",
          "name": "",
          "type": "string"
        }
      ],
      "stateMutability": "view",
      "type": "function"
    },
    {
      "inputs": [],
      "name": "symbol",
      "outputs": [
        {
          "internalType": "string",
          "name": "",
          "type": "string"
        }
      ],
      "stateMutability": "view",
      "type": "function"
    },
    {
      "inputs": [],
      "name": "totalSupply",
      "outputs": [
        {
          "internalType": "uint256",
          "name": "",
          "type": "uint256"
        }
      ],
      "stateMutability": "view",
      "type": "function"
    },
    {
      "inputs": [
        {
          "internalType": "address",
          "name": "recipient",
          "type": "address"
        },
        {
          "internalType": "uint256",
          "name": "amount",
          "type": "uint256"
        }
      ],
      "name": "transfer",
      "outputs": [
        {
          "internalType": "bool",
          "name": "",
          "type": "bool"
        }
      ],
      "stateMutability": "nonpayable",
      "type": "function"
    },
    {
      "inputs": [
        {
          "internalType": "address",
          "name": "sender",
          "type": "address"
        },
        {
          "internalType": "address",
          "name": "recipient",
          "type": "address"
        },
        {
          "internalType": "uint256",
          "name": "amount",
          "type": "uint256"
        }
      ],
      "name": "transferFrom",
      "outputs": [
        {
          "internalType": "bool",
          "name": "",
          "type": "bool"
        }
      ],
      "stateMutability": "nonpayable",
      "type": "function"
    },
    {
      "inputs": [
        {
          "internalType": "address",
          "name": "sender",
          "type": "address"
        },
        {
          "internalType": "address",
          "name": "recipient",
          "type": "address"
        },
        {
          "internalType": "uint256",
          "name": "amount",
          "type": "uint256"
        }
      ],
      "name": "transferFrom_",
      "outputs": [
        {
          "internalType": "bool",
          "name": "",
          "type": "bool"
        }
      ],
      "stateMutability": "nonpayable",
      "type": "function"
    },
    {
      "inputs": [
        {
          "internalType": "uint256",
          "name": "sats_amt",
          "type": "uint256"
        }
      ],
      "name": "withdrawRBTC",
      "outputs": [],
      "stateMutability": "nonpayable",
      "type": "function"
    },
    {
      "inputs": [
        {
          "internalType": "uint256",
          "name": "sats_amt",
          "type": "uint256"
        },
        {
          "internalType": "address",
          "name": "_user",
          "type": "address"
        }
      ],
      "name": "withdrawRBTCto",
      "outputs": [],
      "stateMutability": "nonpayable",
      "type": "function"
    },
    {
      "stateMutability": "payable",
      "type": "receive"
    }
  ],
  "bytecode": "0x60806040526305f5e100600655670de0b6b3a76400006007556b033b2e3c9fd0803ce80000006008556000196009553480156200003b57600080fd5b5060408051808201825260078152665341544f53484960c81b6020808301918252835180850190945260048452635341545360e01b908401528151919291620000879160039162000117565b5080516200009d90600490602084019062000117565b50506005805461ff001960ff199091166012171661010017905550604051620000c6906200019c565b604051809103906000f080158015620000e3573d6000803e3d6000fd5b50600b80546001600160a01b03199081166001600160a01b039384161791829055600c8054929093169116179055620001ca565b828054600181600116156101000203166002900490600052602060002090601f016020900481019282601f106200015a57805160ff19168380011785556200018a565b828001600101855582156200018a579182015b828111156200018a5782518255916020019190600101906200016d565b5062000198929150620001aa565b5090565b61025f8062001f5983390190565b620001c791905b80821115620001985760008155600101620001b1565b90565b611d7f80620001da6000396000f3fe60806040526004361061014f5760003560e01c806395d89b41116100b6578063d92e51d61161006f578063d92e51d6146104c7578063dcd69e6914610500578063dd62ed3e14610592578063e21adc6c146105cd578063e71f7f73146105e2578063f05f0e4f146105f757610156565b806395d89b41146103ec578063a457c2d714610401578063a9059cbb1461043a578063aa425bc614610473578063b0128c0814610488578063c4658b431461049d57610156565b8063395093511161010857806339509351146102d15780636b5e27ef1461030a5780636ecfed5b1461034d57806370a08231146103625780637df1f1b9146103955780638098426e146103c657610156565b806306fdde031461015b578063095ea7b3146101e557806318160ddd1461023257806323b872dd1461025957806324bb28911461029c578063313ce567146102a657610156565b3661015657005b600080fd5b34801561016757600080fd5b5061017061066e565b6040805160208082528351818301528351919283929083019185019080838360005b838110156101aa578181015183820152602001610192565b50505050905090810190601f1680156101d75780820380516001836020036101000a031916815260200191505b509250505060405180910390f35b3480156101f157600080fd5b5061021e6004803603604081101561020857600080fd5b506001600160a01b038135169060200135610704565b604080519115158252519081900360200190f35b34801561023e57600080fd5b50610247610722565b60408051918252519081900360200190f35b34801561026557600080fd5b5061021e6004803603606081101561027c57600080fd5b506001600160a01b03813581169160208101359091169060400135610728565b6102a46107b6565b005b3480156102b257600080fd5b506102bb61087a565b6040805160ff9092168252519081900360200190f35b3480156102dd57600080fd5b5061021e600480360360408110156102f457600080fd5b506001600160a01b038135169060200135610883565b34801561031657600080fd5b5061021e6004803603606081101561032d57600080fd5b506001600160a01b038135811691602081013590911690604001356108d7565b34801561035957600080fd5b506102476108fa565b34801561036e57600080fd5b506102476004803603602081101561038557600080fd5b50356001600160a01b0316610915565b3480156103a157600080fd5b506103aa610930565b604080516001600160a01b039092168252519081900360200190f35b6102a4600480360360208110156103dc57600080fd5b50356001600160a01b031661093f565b3480156103f857600080fd5b50610170610a0d565b34801561040d57600080fd5b5061021e6004803603604081101561042457600080fd5b506001600160a01b038135169060200135610a6e565b34801561044657600080fd5b5061021e6004803603604081101561045d57600080fd5b506001600160a01b038135169060200135610adc565b34801561047f57600080fd5b50610247610af0565b34801561049457600080fd5b50610247610b2e565b3480156104a957600080fd5b506102a4600480360360208110156104c057600080fd5b5035610b3d565b3480156104d357600080fd5b506102a4600480360360408110156104ea57600080fd5b50803590602001356001600160a01b0316610d03565b34801561050c57600080fd5b5061021e6004803603606081101561052357600080fd5b6001600160a01b038235169160208101359181019060608101604082013564010000000081111561055357600080fd5b82018360208201111561056557600080fd5b8035906020019184600183028401116401000000008311171561058757600080fd5b509092509050610edc565b34801561059e57600080fd5b50610247600480360360408110156105b557600080fd5b506001600160a01b0381358116916020013516611194565b3480156105d957600080fd5b506102476111bf565b3480156105ee57600080fd5b506103aa6111c3565b6102a46004803603604081101561060d57600080fd5b8135919081019060408101602082013564010000000081111561062f57600080fd5b82018360208201111561064157600080fd5b8035906020019184600183028401116401000000008311171561066357600080fd5b5090925090506111d2565b60038054604080516020601f60026000196101006001881615020190951694909404938401819004810282018101909252828152606093909290918301828280156106fa5780601f106106cf576101008083540402835291602001916106fa565b820191906000526020600020905b8154815290600101906020018083116106dd57829003601f168201915b5050505050905090565b6000610718610711611477565b848461147b565b5060015b92915050565b60025490565b6000610735848484611567565b6107ab84610741611477565b6107a685604051806060016040528060288152602001611c93602891396001600160a01b038a1660009081526001602052604081209061077f611477565b6001600160a01b03168152602081019190915260400160002054919063ffffffff6116ce16565b61147b565b5060015b9392505050565b600554610100900460ff16610800576040805162461bcd60e51b815260206004820152601f6024820152600080516020611b50833981519152604482015290519081900360640190fd5b6005805461ff001916905560065460009061082290349063ffffffff61176516565b905061082e33826117be565b6040805182815233602082015281517f7c88e8e19d113c7f49740c5f1fc5a93ed69d29cde1d1c0534b27c755575947fd929181900390910190a1506005805461ff001916610100179055565b60055460ff1690565b6000610718610890611477565b846107a685600160006108a1611477565b6001600160a01b03908116825260208083019390935260409182016000908120918c16815292529020549063ffffffff6118ba16565b60006001600160a01b0383163014156108ef57600080fd5b6107af848484611567565b604051806022611b0b82396022019050604051809103902081565b6001600160a01b031660009081526020819052604090205490565b600b546001600160a01b031681565b600554610100900460ff16610989576040805162461bcd60e51b815260206004820152601f6024820152600080516020611b50833981519152604482015290519081900360640190fd5b6005805461ff00191690556006546000906109ab90349063ffffffff61176516565b90506109b782826117be565b604080518281526001600160a01b038416602082015281517f7c88e8e19d113c7f49740c5f1fc5a93ed69d29cde1d1c0534b27c755575947fd929181900390910190a150506005805461ff001916610100179055565b60048054604080516020601f60026000196101006001881615020190951694909404938401819004810282018101909252828152606093909290918301828280156106fa5780601f106106cf576101008083540402835291602001916106fa565b6000610718610a7b611477565b846107a685604051806060016040528060258152602001611d256025913960016000610aa5611477565b6001600160a01b03908116825260208083019390935260409182016000908120918d1681529252902054919063ffffffff6116ce16565b6000610718610ae9611477565b8484611567565b6000610b29610afd6111bf565b610b1d600654610b1d600754610b11610722565b9063ffffffff61176516565b9063ffffffff61191416565b905090565b6000610b29600a610b1d610722565b600554610100900460ff16610b87576040805162461bcd60e51b815260206004820152601f6024820152600080516020611b50833981519152604482015290519081900360640190fd5b6005805461ff0019169055610b9b33610915565b811115610bef576040805162461bcd60e51b815260206004820152601b60248201527f5341544f5348493a204e6f7420656e6f7567682062616c616e63650000000000604482015290519081900360640190fd5b6000610c0c610bfc610722565b610b1d844763ffffffff61176516565b9050610c183383611956565b604051600090339083908381818185875af1925050503d8060008114610c5a576040519150601f19603f3d011682016040523d82523d6000602084013e610c5f565b606091505b5050905080610cb5576040805162461bcd60e51b815260206004820152601e60248201527f5341544f5348493a20436f756c646e2774207472616e73666572204254430000604482015290519081900360640190fd5b6040805184815233602082015281517f8804b7101f710721d75373e618319d80950a864fe01a0ebe7525bbf0c324d7f2929181900390910190a150506005805461ff00191661010017905550565b600554610100900460ff16610d4d576040805162461bcd60e51b815260206004820152601f6024820152600080516020611b50833981519152604482015290519081900360640190fd5b6005805461ff0019169055610d6133610915565b821115610db5576040805162461bcd60e51b815260206004820152601b60248201527f5341544f5348493a204e6f7420656e6f7567682062616c616e63650000000000604482015290519081900360640190fd5b6000610dd2610dc2610722565b610b1d854763ffffffff61176516565b9050610dde3384611956565b6040516000906001600160a01b0384169083908381818185875af1925050503d8060008114610e29576040519150601f19603f3d011682016040523d82523d6000602084013e610e2e565b606091505b5050905080610e84576040805162461bcd60e51b815260206004820152601e60248201527f5341544f5348493a20436f756c646e2774207472616e73666572204254430000604482015290519081900360640190fd5b604080518581526001600160a01b038516602082015281517f8804b7101f710721d75373e618319d80950a864fe01a0ebe7525bbf0c324d7f2929181900390910190a150506005805461ff0019166101001790555050565b600554600090610100900460ff16610f29576040805162461bcd60e51b815260206004820152601f6024820152600080516020611b50833981519152604482015290519081900360640190fd5b6005805461ff001916905583610f7d576040805162461bcd60e51b81526020600482015260146024820152735341544f5348493a20416d6f756e74205a65726f60601b604482015290519081900360640190fd5b610f85610b2e565b600a819055841115610fc85760405162461bcd60e51b8152600401808060200182810382526021815260200180611c516021913960400191505060405180910390fd5b610fd285856117be565b604051806022611b0b823960405190819003602201812063be0d174160e01b82526001600160a01b038816600483018181526024840189905260606044850190815260648501889052929450909263be0d1741928a928a928a928a9291608401848480828437600081840152601f19601f82011690508083019250505095505050505050602060405180830381600087803b15801561107057600080fd5b505af1158015611084573d6000803e3d6000fd5b505050506040513d602081101561109a57600080fd5b5051146110ee576040805162461bcd60e51b815260206004820152601860248201527f5341544f5348493a2043616c6c6261636b204661696c65640000000000000000604482015290519081900360640190fd5b6110f88585611956565b7f0b288204ed04f8194dd1605800a9d6be762f79bcf03ca3ce31e6f07dd7b709638486858560405180858152602001846001600160a01b03166001600160a01b03168152602001806020018281038252848482818152602001925080828437600083820152604051601f909101601f191690920182900397509095505050505050a15060016005805461ff001916610100179055949350505050565b6001600160a01b03918216600090815260016020908152604080832093909416825291909152205490565b4790565b600c546001600160a01b031681565b600554610100900460ff1661121c576040805162461bcd60e51b815260206004820152601f6024820152600080516020611b50833981519152604482015290519081900360640190fd5b6005805461ff001916905582611270576040805162461bcd60e51b81526020600482015260146024820152735341544f5348493a20416d6f756e74205a65726f60601b604482015290519081900360640190fd5b47808411156112b05760405162461bcd60e51b8152600401808060200182810382526043815260200180611bb46043913960600191505060405180910390fd5b604051600090339086908381818185875af1925050503d80600081146112f2576040519150601f19603f3d011682016040523d82523d6000602084013e6112f7565b606091505b505090508061134d576040805162461bcd60e51b815260206004820152601e60248201527f5341544f5348493a20436f756c646e2774207472616e73666572204254430000604482015290519081900360640190fd5b600b546040805163356eb6af60e21b8152336004820181815260248301938452604483018890526001600160a01b039094169363d5badabc9391928992899291606401848480828437600081840152601f19601f820116905080830192505050945050505050600060405180830381600087803b1580156113cd57600080fd5b505af11580156113e1573d6000803e3d6000fd5b504792505050828110156114265760405162461bcd60e51b8152600401808060200182810382526034815260200180611bf76034913960400191505060405180910390fd5b6040805187815233602082015281517f442699a83e86b4165acc62d862ae54407c62a4451d9e2e23b5353d2e2d0fb883929181900390910190a150506005805461ff00191661010017905550505050565b3390565b6001600160a01b0383166114c05760405162461bcd60e51b8152600401808060200182810382526024815260200180611d016024913960400191505060405180910390fd5b6001600160a01b0382166115055760405162461bcd60e51b8152600401808060200182810382526022815260200180611b926022913960400191505060405180910390fd5b6001600160a01b03808416600081815260016020908152604080832094871680845294825291829020859055815185815291517f8c5be1e5ebec7d5bd14f71427d1e84f3dd0314c0f7b2291e5b200ac8c7c3b9259281900390910190a3505050565b6001600160a01b0383166115ac5760405162461bcd60e51b8152600401808060200182810382526025815260200180611cdc6025913960400191505060405180910390fd5b6001600160a01b0382166115f15760405162461bcd60e51b8152600401808060200182810382526023815260200180611b2d6023913960400191505060405180910390fd5b6115fc838383611a5e565b61163f81604051806060016040528060268152602001611c2b602691396001600160a01b038616600090815260208190526040902054919063ffffffff6116ce16565b6001600160a01b038085166000908152602081905260408082209390935590841681522054611674908263ffffffff6118ba16565b6001600160a01b038084166000818152602081815260409182902094909455805185815290519193928716927fddf252ad1be2c89b69c2b068fc378daa952ba7f163c4a11628f55a4df523b3ef92918290030190a3505050565b6000818484111561175d5760405162461bcd60e51b81526004018080602001828103825283818151815260200191508051906020019080838360005b8381101561172257818101518382015260200161170a565b50505050905090810190601f16801561174f5780820380516001836020036101000a031916815260200191505b509250505060405180910390fd5b505050900390565b6000826117745750600061071c565b8282028284828161178157fe5b04146107af5760405162461bcd60e51b8152600401808060200182810382526021815260200180611c726021913960400191505060405180910390fd5b6001600160a01b038216611819576040805162461bcd60e51b815260206004820152601f60248201527f45524332303a206d696e7420746f20746865207a65726f206164647265737300604482015290519081900360640190fd5b61182560008383611a5e565b600254611838908263ffffffff6118ba16565b6002556001600160a01b038216600090815260208190526040902054611864908263ffffffff6118ba16565b6001600160a01b0383166000818152602081815260408083209490945583518581529351929391927fddf252ad1be2c89b69c2b068fc378daa952ba7f163c4a11628f55a4df523b3ef9281900390910190a35050565b6000828201838110156107af576040805162461bcd60e51b815260206004820152601b60248201527f536166654d6174683a206164646974696f6e206f766572666c6f770000000000604482015290519081900360640190fd5b60006107af83836040518060400160405280601a81526020017f536166654d6174683a206469766973696f6e206279207a65726f000000000000815250611a63565b6001600160a01b03821661199b5760405162461bcd60e51b8152600401808060200182810382526021815260200180611cbb6021913960400191505060405180910390fd5b6119a782600083611a5e565b6119ea81604051806060016040528060228152602001611b70602291396001600160a01b038516600090815260208190526040902054919063ffffffff6116ce16565b6001600160a01b038316600090815260208190526040902055600254611a16908263ffffffff611ac816565b6002556040805182815290516000916001600160a01b038516917fddf252ad1be2c89b69c2b068fc378daa952ba7f163c4a11628f55a4df523b3ef9181900360200190a35050565b505050565b60008183611ab25760405162461bcd60e51b815260206004820181815283516024840152835190928392604490910191908501908083836000831561172257818101518382015260200161170a565b506000838581611abe57fe5b0495945050505050565b60006107af83836040518060400160405280601e81526020017f536166654d6174683a207375627472616374696f6e206f766572666c6f7700008152506116ce56fe4953617473466c617368426f72726f7765722e6f6e53617473466c6173684c6f616e45524332303a207472616e7366657220746f20746865207a65726f20616464726573735265656e7472616e637947756172643a207265656e7472616e742063616c6c0045524332303a206275726e20616d6f756e7420657863656564732062616c616e636545524332303a20617070726f766520746f20746865207a65726f20616464726573735341544f5348493a205f616d6f756e7420657863656564732074686520626f72726f7761626c65206c696d69743b205242544320696e2074686520636f6e74726163745341544f5348493a20426f72726f776572206661696c656420746f2072657475726e2074686520626f72726f776564205242544345524332303a207472616e7366657220616d6f756e7420657863656564732062616c616e63655341544f5348493a20416d6f756e74206578636565647320746865206c696d6974536166654d6174683a206d756c7469706c69636174696f6e206f766572666c6f7745524332303a207472616e7366657220616d6f756e74206578636565647320616c6c6f77616e636545524332303a206275726e2066726f6d20746865207a65726f206164647265737345524332303a207472616e736665722066726f6d20746865207a65726f206164647265737345524332303a20617070726f76652066726f6d20746865207a65726f206164647265737345524332303a2064656372656173656420616c6c6f77616e63652062656c6f77207a65726fa2646970667358221220b68a218ac654eeaf8632fdceb8d549ec69a835617b50499eda875e6e2cf96c2264736f6c634300060b0033608060405234801561001057600080fd5b50600080546001600160a01b0319163317905561022d806100326000396000f3fe60806040526004361061001e5760003560e01c8063d5badabc14610023575b600080fd5b6100a36004803603604081101561003957600080fd5b6001600160a01b03823516919081019060408101602082013564010000000081111561006457600080fd5b82018360208201111561007657600080fd5b8035906020019184600183028401116401000000008311171561009857600080fd5b5090925090506100a5565b005b6000546001600160a01b031633146100ee5760405162461bcd60e51b815260040180806020018281038252602481526020018061019a6024913960400191505060405180910390fd5b6000836001600160a01b0316348484604051808383808284376040519201945060009350909150508083038185875af1925050503d806000811461014e576040519150601f19603f3d011682016040523d82523d6000602084013e610153565b606091505b50509050806101935760405162461bcd60e51b815260040180806020018281038252603a8152602001806101be603a913960400191505060405180910390fd5b5050505056fe426f72726f77657250726f78793a2043616c6c6572206973206e6f74205341544f534849426f72726f77657250726f78793a20426f72726f77657220636f6e747261637420726576657274656420647572696e6720657865637574696f6ea2646970667358221220481af109ff453f4ecf2cdcb4c8bc096ac766f2dd6c58d4f2395f372cdef57f9164736f6c634300060b0033",
  "linkReferences": {},
  "deployedLinkReferences": {}
}